:020000040000FA
:06000000020AE702021FE4
:03002B000208E1E7
:030043000207951C
:0300530002015453
:100083000201B3010020FD00020000E50E000000A4
:100093000000004B0F000000000000CD0E00000028
:1000A300000000000000000000000000000000004D
:1000B300000000000006FFFF010B1300000000001A
:1000C300000000000000000000000000000000002D
:1000D30000080401000000020A8402988301010160
:1000E3000402000E19000000E8030000FFFFD81906
:1000F30003E803000064006400B801A0BB0D00A086
:10010300BB0D000202000800000502070401051EE2
:1001130002051E020A0A0102080803B80B02803E08
:100123000102FEFFE8030A050001FFFF0A1401E0D4
:1001330002000000010105030101FF0F10FEFF96FD
:100143002700000000CC2600000000FF000000FF95
:1001530000C0E074F1120436A2AFE433F509D2AF64
:1001630085A708AFA1EF5508FE74105E6006120C58
:100173006375A1EF74085E6008120C6975A1F780BE
:1001830024EFA2E092F0E508A2E082F0501790611C
:1001930098E0F8900581E0C398A2D265D03350026D
:1001A300E8F075A1FEE509A2E092AF7F0202049593
:1001B300C0E074F2120436A2AFE433FED2AF906112
:1001C300A4E0F8759B00E59158540860087591F711
:1001D300120CB18023E59158541060087591EF1209
:1001E3000CB78014E591A2E092F0E8A2E082F0500F
:1001F30007E0C2E0F0120E019061A3E0F8E5E958D0
:100203005404600E120DD775E9FB906193E0A2E6EA
:1002130040F2EEA2E092AF7F01020495C0E074F2D7
:10022300120436A2AFE433FED2AF9061A5E0F8E545
:10023300BF585404600675BFFB120E1980D4C3E483
:1002430098F8E499F91202828026C3E49AFAE49BAF
:10025300FBE920E7E9120282E498F8E499F922C362
:10026300E498F8E499F9120282E498F8E499F9C35E
:10027300E49AFAE49BFB22EB20E7CFE920E7E0B91D
:100283000010BB0008E88AF084F8AAF022E4FBC857
:10029300FA22EB70227B10C833C8C933C933500725
:1002A300C39AC3DBF280069A50012ADBEAC833F40F
:1002B300C8C933F4C9FA2275F008E4C833C8C9338E
:1002C300C933C99AC99B5004C92AC93BD5F0ECFB71
:1002D300C833F4C8E4C9FA22080808EAC0E0EBC04E
:1002E300E086F0E7A4FA180986F0E7A42AFA1809C9
:1002F30086F0E7A42AFA180986F0E7A42AFA1986F1
:10030300F0E7A4FBE5F02AFA190886F0E7A42BFB33
:10031300E5F03AFA190886F0E7A42BFBE5F03AFA80
:1003230018180986F0E7A4C5F02BFBE43AFA19087C
:10033300E7C5F0C6A426F6E5F03BFBE43AFA1886D7
:10034300F0E7A4F6E5F00826F6E43B08F6E43A08FD
:10035300F6D0E0FBD0E0FA22E4CFC0E0E4CEC0E088
:10036300E4CDC0E0E4CCC0E075F020E626F608E674
:1003730033F608E633F608E633F6181818EC33FCC0
:10038300ED33FDEE33FEEF33FFC3EC9709ED970931
:10039300EE9709EF97191919400FFFEC97FC09ED38
:1003A30097FD09EE97FE191906D5F0BFECF709ED95
:1003B300F709EEF709EFF7191919D0E0FCD0E0FDC2
:1003C300D0E0FED0E0FF222518C582C0E0E5193455
:1003D300FFC583C0E0E518C3958224F810AF0885F4
:1003E30083198582188008858319858218D2AFCE38
:1003F300F0A3E520F0A37808E608F0A3DEFAEFF017
:10040300A3E58124FAF8E608F0A3E608F0A3E608DA
:10041300F0A30808E608F0A3E608F0A31581158108
:10042300D0E0FED0E0F8158115811581E8C0E0EE3B
:10043300C0E022C0D02518C582C0E0E51934FFC54D
:1004430083C0E0E518C3958224F310AF08858319B0
:100453008582188008858319858218D2AFC8F0A3D6
:10046300E9F0A3EAF0A3EBF0A37908E709F0A3D836
:10047300FAECF0A3EDF0A3EEF0A3EFF0A3D0E0F0DD
:10048300A3D0E0F0A3D0E0F0A3E520F0A3E5F0F0E3
:10049300A322851983851882E0C0E0A3E0F9A3E0D5
:1004A300FAA3E0FBA37808E0F608A3DFFAE0FCA3D5
:1004B300E0FDA3E0FEA3E0FFA3E0C0E0A3E0C0E013
:1004C300A3E0F5D0A3E0F520A3E0A3F5F010AF0877
:1004D3008583198582188008858319858218D2AF90
:1004E300D082D083D0E0F8D0E032120B79B9000388
:1004F30002052CE490030178A6791A8002F0A3D8B0
:10050300FCD9FA7AA67B1C90008678CF79018015F6
:10051300E493A3AD82AE838A828B83F0A3AA82ABDA
:10052300838D828E83D8E9D9E77582487583A57454
:10053300051208587582CF7583247400120858E495
:100543007375F0108E1A8F1B85821F85831E851885
:1005530082851983E0CEA3E0CF851F82851E83EBBE
:10056300C9EAC8EDCBECCAC3E833C8E933C9EA33F7
:10057300CAEB33CBC3EA9EF51DEB9FF51CB35004C6
:10058300AB1CAA1DEC33CCED33CDD5F0DAAE1AAFEC
:100593001B22D083D082ECC0E0EDC0E0E493A3FC47
:1005A300E493A3FDED4C600D12066DEC24FFFCED0E
:1005B30034FFFD80EFE493A3FCE493A3FDED4C60D3
:1005C3000D120740EC24FFFCED34FFFD80EFD0E07B
:1005D300FDD0E0FCE493A3C0E0E493C0E022D08329
:1005E300D082E9C0E0E493A3C386F0C5F095F0F9A7
:1005F30008E493A386F0C5F095F0700BE493A3C3CE
:10060300994005E9048002A3E475F002A42582F56C
:1006130082E5F03583F583D0E0F9E493A3C0E0E409
:1006230093C0E022851983851882E0A3FEE0A3F539
:10063300207808E0A3F608DFFAE0A3FFE0A3C0E018
:10064300E0A3C0E0E0A3C0E0E0A3C0E0E0A3C0E01B
:1006530010AF0885821885831980088582188583E1
:1006630019D2AFD083D08202085EC0E0C3E4939670
:10067300087401939618400FE49366700808740198
:1006830093661870007019A3A3C3E49396087401CA
:10069300939618A3A3400DD0E0D0E0D0E00205D19B
:1006A300A3A3A3A3A3A3D0E022D083D082C5F0E465
:1006B30093A3C5F0C395F0F5F0E493A3C395F0407D
:1006C30005E5F0048001E475F002A42582F582E5D6
:1006D300F03583F583E493A3C0E0E493C0E0227490
:1006E30004800474028000CCC0E0EDC0E0E518C3D0
:1006F3009CCCAD1950011D10AF068C188D198006C6
:100703008C188D19D2AF1207DAD0E0FDD0E0FC22AD
:1007130074028000CCC0E0EDC0E0E518C39CCCAD12
:100723001950011D10AF068C188D1980068C188D79
:1007330019D2AF1207B8D0E0FDD0E0FC22C0E0C070
:10074300F088F0E4936670080874019366187000EB
:10075300A8F0A3A3700BD0F0D0E0D0E0D0E0020566
:10076300D1A3A3D0F0D0E022D083D082CCC0E0E4E8
:1007730093A3600612081A1470FAE493A360061296
:1007830009441470FAD0E0FCE493A3C0E0E493C0FE
:10079300E022C0E074F2120436A2AFE433FED2AF1B
:1007A300C2C0E5D1A2E45003120BD3EEA2E092AF94
:1007B3007F01020495CAC0E0E493A3C582CCC5823D
:1007C300C583CDC583F0A3C582CCC582C583CDC502
:1007D30083DAE5D0E0CA22CAC0E0E0A3C582CCC573
:1007E30082C583CDC583F0A3C582CCC582C583CD25
:1007F300C583DAE6D0E0CA22C008C3E096F508084C
:10080300A3E096420808A3E096420808A3E09645B1
:10081300087001D3D00822C0E0E493A3D39C501006
:10082300E493A3C39C400AD0E0D0E0D0E002078861
:10083300A3A3A3D0E02270090808082260161818A1
:1008430018C6C333C608C633C608C633C608C6337C
:10085300C6D5E0EA22C09FF59FE473D09F22D083E0
:10086300D082C09FE493C0E0740193C0E07402930C
:10087300F59F2200C0D0251810AF08F518500C05BD
:10088300198008F51850020519D2AFD0D0222518C7
:10089300F58210AF08F518400C15198008F51840BB
:1008A300021519D2AF851983227404800A74038058
:1008B30006740280027401C0E0F404120891D0E0CF
:1008C300120B2422BB0102E722C082C08389828AE1
:1008D30083BB0003E08002E493D083D08222C0E094
:1008E300C0D0E8C0E0A8A8D2AFC2C7E8A2E792AFE1
:1008F300D0E0F8D0D0D0E0326016080808C6C313A1
:10090300C618C613C618C613C618C613C6D5E0EA5A
:10091300222518F8E43519F9222518FAE43519FBCC
:10092300222518FCE43519FD22C3E0C696F608A378
:10093300E0C696F608A3E0C696F608A3E0C696F6C8
:1009430022C0E0E493A36C7009D0E0D0E0D0E002D1
:100953000788A3A3D0E022251810AF08F518400C90
:1009630015198008F51840021519D2AF22E06670F8
:100973001008A3E066700A08A3E066700408A3E009
:100983006622C3E09608A3E09608A3E09608A3E0D6
:1009930096A2D265D03322E76670100809E7667025
:1009A3000A0809E76670040809E76622C3E096F0BF
:1009B30008A3E096F008A3E096F008A3E096F022DF
:1009C300C3E697F60809E697F60809E697F60809D5
:1009D300E697F622C3E4939608740193960874028B
:1009E3009396087403939622E627F60809E637F6EA
:1009F3000809E637F60809E637F622E026F608A3E3
:100A0300E036F608A3E036F608A3E036F6227004D3
:100A130022600D18C6C333C608C633C6D5E0F41822
:100A230022E493F608740193F608740293F60874AB
:100A33000393F622E657F60809E657F60809E65740
:100A4300F60809E657F622E056F608A3E056F6083C
:100A5300A3E056F608A3E056F622E647F60809E6B1
:100A630047F60809E647F60809E647F622E026F0C6
:100A730008A3E036F008A3E036F008A3E036F0223E
:100A8300E056F008A3E056F008A3E056F008A3E010
:100A930056F022E4C396F608E496F608E496F608C0
:100AA300E496F622600D08C6A2E713C618C613C65D
:100AB300D5E0F322C6F4C608C6F4C608C6F4C608D1
:100AC300C6F4C622C3E7960809E7960809E796081D
:100AD30009E79622C3E09608A3E09608A3E09608E8
:100AE300A3E0962275D00075813F7518017519032F
:100AF300000204EDE6F008A3E6F008A3E6F008A37D
:100B0300E6F022600C08C6C313C618C613C6D5E0A8
:100B1300F422E0F608A3E0F608A3E0F608A3E0F663
:100B230022CAC0E0E6F0A308DAFAD0E0FA22E8F03D
:100B3300A3E9F0A3EAF0A3EBF022E0F8A3E0F9A322
:100B4300E0FAA3E0FB22ECF0A3EDF0A3EEF0A3EFB9
:100B5300F022E0FCA3E0FDA3E0FEA3E0FF22EAF025
:100B6300A3EBF0A3ECF0A3EDF022E0FAA3E0FBA3E8
:100B7300E0FCA3E0FD22E5C754F84401F5C7790181
:100B8300222518F582E43519F58322C2AF75D69F65
:100B9300020000221208614699051208611A9A059B
:100BA300120861EC9B05120861C5FF011208610C74
:100BB300E60412086179E60412086131E7041208B9
:100BC30061A7E704120861BAE80412086145EA0460
:100BD300120861AEEA04120861FDEA041208610614
:100BE300EB0412086115EB041208612BEB041208E5
:100BF300613EEB0412086147EB041208615AEB04EF
:100C030012086186EB04120861F7ED0412086137DC
:100C1300EE0412086177EE041208618BEE041208E9
:100C230061A4EE0412086195EF041208613AF0041E
:100C33001208614EF00412086162B0051208618661
:100C4300B0051208619FB005120861D1B005120802
:100C53006101B1051208612EB10512086190B10559
:100C63001208619FB105120861A9B105120861B6A6
:100C7300B105120861B2A205120861D2A2051208D9
:100C83006111A3051208612CA3051208614BA3058A
:100C9300120861B1A305120861BAA305120861170E
:100CA300A4051208613BA405120861FCA4051208FF
:100CB3006109A5051208611AA505120861C7BA05DD
:100CC300120861DFBA051208610BBB0512086164E3
:100CD300FA04120861BEFB04120861CBFB0412087C
:100CE30061DEFB04120861F3FB0412086108FC04D3
:100CF3001208611BFC041208618FFC04120861F4E2
:100D0300FC0412086196FD041208615AFE041208DD
:100D1300616AFE0412086179FE0412086174B80561
:100D230012086198B805120861C0B805120861E895
:100D3300B80512086157AA051208617EAA051208B0
:100D4300619CAA051208610FAB05120861DF9F05BC
:100D5300120861F89F0512086104A00512086118C2
:100D6300A00512086136A00512086140A00512080B
:100D7300614AA0051208615DA005120861E3A005A0
:100D830012086158A10512086187A105120861D5EF
:100D9300A10512086124A2051208613FA2051208E9
:100DA3006149A2051208615AA2051208619DA205B4
:100DB30012086114BC0512086157CE041208618140
:100DC300CE041208619ECE04120861B1CE0412084B
:100DD30061C7CE0412086125CF041208615DCF04F8
:100DE30012086151D30412086196D404120861C930
:100DF300D4041208612CD50412086196D604120893
:100E030061BED604120861D3D604120861E3D60486
:100E130012086127D70412086182D704120861926D
:100E2300D704120861C0B105120861DAB1051208CE
:100E33006102B2051208611BB2051208613FB205D7
:100E43001208615DB20512086174B205120861A24D
:100E5300B205120861BDB205120861ACBC051208E7
:100E630061519C05120861619C05120861689D052A
:100E73001208619C9D05120861BE9D05120861E17F
:100E83009D05120861FF9D05120861399E05120830
:100E9300619E9E05120861E09E051208611F9F0571
:100EA300120861509F05120861879F05120861B2FD
:100EB300FE04120861D0FE0412086135FF04120813
:100EC30061D4FF0412086107B605120861F0B20588
:100ED30012086136B30512086151FE0212086190CF
:100EE300FF0212086147B90412086119BD04120810
:100EF3006108BF0412086136C00412086113C104FB
:100F030012086195C20412086165C304120861B92D
:100F1300C30412086197AE05120861B8AE05120842
:100F230061EAAF0512086114B005120861D0A70584
:100F330012086144A8051208614FA80512086170E0
:100F4300A8051208611FF00112086122F0011208BE
:100F530061E2F40112086118F6011208616BF701EE
:100F63001208612FF80112086112F9011208610ACF
:100F7300FA01120861BAFA01120861EAFA011208C9
:100F830061A1FC011208617AAC051208619AAC05F3
:100F93001208617FAD0512086167AE05120861BED4
:100FA300B705120861F4B7051208610EB8051208F7
:100FB3006150B80512086160B8051208616AB80586
:100FC300120861F8DE0412086102DF041208613CB2
:100FD300DF04120861A5DF04120861C2DF041208EE
:100FE30061DBDF041208617DE00412086186E0041E
:100FF300120861CBE004120861F4E00412086101F5
:10100300E10412086172E104120861FDE1041208AF
:10101300614BE20412086189E204120861EEE20402
:1010230012086111E30412086188E304120861DF06
:10103300E3041208611AE4041208614FE40412087D
:101043006161E40412086173E40412086192E40428
:101053001208619BE40412086156E504120861A2B8
:10106300E504120861E0E50412086159F504120869
:101073006199F604120861BCF604120861CDF60406
:10108300120861CCF804120861ECF8041208618FAD
:10109300FD01120861C5FD011208610DFE01120870
:1010A3006166FF01120861939504120861B7960403
:1010B300120861F196041208619B9804120861C535
:1010C30098041208613A9B041208617A9B0412087F
:1010D30061109D04120861AD9D04120861FF9D0417
:1010E300120861A29E04120861DA9E041208611CB0
:1010F3009F041208618BA004120861D9A10412088D
:10110300610AA40412086138A4041208615FA404EC
:1011130012086168A404120861B8A4041208614AA1
:10112300A50412086179A804120861FCA804120836
:1011330061DD7F00120861F37F00120861B7BB0510
:101143001208611B8D05120861318D05120861D5E6
:101153008D05120861148E05120861318E0512087F
:1011630061628E05120861AF8E05120861E28E0579
:101173001208611D8F05120861129105120861079B
:10118300B50512086166B505120861A4B505120814
:1011930061E5B505120861CDCB02120861D9CB0216
:1011A30012086142CC021208617ECC02120861412E
:1011B300CD02120861C1CD0212086143CE021208AA
:1011C30061EECF02120861BDD10212086124D3027D
:1011D300120861C1D30212086169D802120861576B
:1011E300D902120861F2D90212086117DA02120851
:1011F30061B3DA02120861C8DA02120861ECDA029A
:1012030012086152DB021208616FDB021208619956
:10121300DB0212086116DD0212086137DD021208D3
:1012230061BDDD0212086163DE02120861AADE02FB
:101233001208611DDF02120861A9DF021208610DA5
:10124300E0021208616DE00212086103E102120874
:10125300617EE102120861B1E10212086113E20248
:1012630012086175E302120861E5E3021208619353
:10127300E402120861E9E5021208617FE60212083E
:1012830061EBE6021208612EE902120861BAEA0272
:10129300120861E5EA02120861C8EC021208616DE6
:1012A300EE0212086176EF0212086100800512084F
:1012B300617681051208619B81051208619E830591
:1012C300120861E28305120861F48305120861FEC6
:1012D3008305120861588405120861D87B0012083F
:1012E300618F7C00120861F57C00120861167D0095
:1012F300120861E57D00120861BEFC031208612A31
:10130300FD031208610CFF03120861E1FF031208D9
:1013130061C1D9031208611CDA03120861ABDA0355
:1013230012086108DC03120861D1DC031208614C66
:10133300DD031208619EDD03120861FFDD0312085D
:101343006138DE0312086191DE03120861A9DE032E
:10135300120861E9DE03120861F1DF031208612C50
:10136300E00312086164E003120861D6E003120887
:101373006104E1031208611DE10312086164E103E2
:1013830012086184E10312086141E203120861114A
:10139300E3031208611CE3031208618CE3031208E0
:1013A30061E6E3031208612AE4031208614EE403D1
:1013B300120861CAE60312086101E703120861809B
:1013C300E703120861A5E7031208611CE80312088A
:1013D30061E9E8031208612EE90312086190E90349
:1013E30012086153EA0312086156EA0312086160A6
:1013F300EA031208616AEA031208616DEA0312083C
:1014030061EDEA0312086116EB0312086124EB0392
:1014130012086150EB0312086177EB031208619B1A
:10142300EB03120861D6EB0312086148EC031208C0
:10143300614BEC0312086155EC0312086196EC034F
:10144300120861ACEC03120861C7EC03120861F5E2
:10145300EC0312086115ED031208615EED03120837
:101463006195ED0312086192EE03120861BCEF036C
:10147300120861D2EF03120861EAEF03120861FC5C
:10148300EF031208615FBC0512086177BC051208FF
:101493006162F004120861A0F0041208612CF104E7
:1014A30012086137F20412086153F404120861D080
:1014B300F404120861C2D70412086111D804120897
:1014C30061B1D9041208616CDB04120861AEDB045C
:1014D300120861CDDC04120861D7DD04120861F93A
:1014E300DD0412086143DE04120861C4DE0412083D
:1014F3006109BA0312086128BA03120861B4BA0376
:10150300120861FDBA0312086157BB03120861CFC9
:10151300BB0312086130BC031208617CBC031208D0
:1015230061F0BC0312086175BD03120861EDBD03D0
:1015330012086130BE0312086149C2031208618CAC
:10154300C403120861C5C40312086197C5031208D6
:10155300619AC5031208616EC603120861ACC70322
:1015630012086171C90312086170CB031208613A52
:10157300CC03120861B3CE0312086130CF03120803
:101583006121D0031208615DD3031208616DD30397
:10159300120861E4D40312086169D503120861C714
:1015A300D6031208610CD80312086173D80312081A
:1015B300610FD903120861008004120861A080043E
:1015C3001208610A8104120861238104120861A5CB
:1015D3008104120861E9810412086101830412087D
:1015E300613D8304120861BA83041208610584040F
:1015F300120861648404120861108504120861B939
:101603008704120861E788041208616B89041208D1
:1016130061488B04120861ED8B04120861908C04FD
:10162300120861EF8C04120861648D04120861BD15
:101633008E04120861878F04120861159104120841
:1016430061259204120861CB920412086135930458
:1016530012086154940412086149A904120861BD77
:10166300A90412086105AA0412086149AA04120810
:101673006189AA04120861E4AA041208615AAB043E
:10168300120861C2AB04120861ECAB0412086101D9
:10169300AD0412086118AE041208613AAE041208D0
:1016A3006130AF0412086141AF0412086159AF04FD
:1016B30012086188B004120861BFB004120861C83F
:1016C300B004120861EBB00412086113B1041208EC
:1016D30061FEB10412086182B204120861D8B20437
:1016E30012086159B304120861C4B304120861BE3D
:1016F300B404120861BFB504120861A8B604120845
:1017030061B6B60412086189B70412086129B804E6
:101713001208619DB804120861B2B804120861FA94
:101723009405120861A296051208616897051208CC
:1017330061BD97051208613A98051208611F91056A
:101743001208613D9105120861819105120861A794
:101753009105120861CD9105120861E59105120802
:1017630061FD910512086115920512086105B40522
:10177300120861BA9205120861DC9305120861E54B
:101783009305120861EE9305120861F79305120899
:10179300610194051208618D84051208616D880545
:1017A3001208617B88051208618088051208615D53
:1017B300A605120861F0BC05120861E78805120846
:1017C30061A7B905120861D1B9051208611CBD05ED
:1017D300120861CD9805120861578002120861C38F
:1017E30080021208614F8102120861058202120809
:1017F300614D8202120861668202120861898202C7
:10180300120861AB8202120861E982021208613890
:101813008302120861638302120861C18302120802
:10182300616884021208611085021208618C8502C6
:10183300120861598602120861C98602120861E51D
:1018430086021208611487021208612089021208B5
:10185300614E8A021208617A8A02120861AE8A0214
:10186300120861CF8A02120861DE8A02120861E956
:101873008A02120861988B02120861088C0212080E
:1018830061938C021208619B8C02120861088D021D
:10189300120861448D021208610A8E02120861DD8A
:1018A3008E02120861328F021208615490021208EC
:1018B300613891021208615D9102120861CF9102B1
:1018C300120861669202120861CB9202120861BB90
:1018D3009302120861E09302120861F8940212085D
:1018E30061149502120861A69502120861C8960256
:1018F300120861D896021208610698021208618ADA
:101903009802120861C69802120861A09A0212088E
:10191300615D9E02120861719E021208617B9E0244
:10192300120861859E021208618F9E021208619956
:101933009E02120861B29E02120861BC9E02120846
:1019430061299F02120861349F021208615C9F02A1
:10195300120861679F02120861CC9F02120861D6C8
:101963009F02120861E19F0212086105A00212089A
:101973006129A0021208619BA002120861E4A0027F
:1019830012086100A10212086171A102120861BD6F
:10199300A10212086106A20212086144A2021208FF
:1019A30061C5A2021208616CA3021208613BA50281
:1019B300120861A0A502120861CEA602120861F402
:1019C300A6021208613CA80212086176AB02120853
:1019D3006174AD021208613FAF02120861D8AF0211
:1019E300120861D9B1021208618EB202120861C7EE
:1019F300B2021208612DB30212086137B302120852
:101A03006160B5021208619FB602120861F6B60260
:101A1300120861A1B70212086151B9021208619E4E
:101A2300BA02120861BEBA0212086113BB0212089D
:101A33006114BC021208613CBC021208619BBC0227
:101A430012086193BD021208610ABE021208611DE9
:101A5300BF021208618BBF021208618AC00212081A
:101A630061E4C2021208610DC30212086173C40269
:101A7300120861F5C5021208614CC602120861FA28
:101A8300C6021208619FC702120861F8C702120852
:101A930061B6C80212086148C902120861A7C902E7
:101AA300120861E9C9021208611ACA0212086171B7
:101AB300CB02120861F02A00120861222B001208DF
:101AC300615B2B00120861192D001208615D2D0066
:101AD300120861332E00120861922E00120861A8C9
:101AE3002F00120861F42F001208618232001208DD
:101AF300615C3500120861A336001208613B3700B0
:101B0300120861473700120861903700120861D24A
:101B13003800120861C83900120861F2390012084E
:101B230061483A00120861A13A00120861143B00AF
:101B33001208614A3D00120861CC3E00120861B7E9
:101B43003F00120861014100120861394300120885
:101B530061364600120861454600120861D9460005
:101B63001208611C47001208619B470012086118A4
:101B73004A001208614A4B00120861224C00120805
:101B830061A44C00120861D9500012086108510089
:101B93001208616351001208619651001208610E28
:101BA3005200120861415200120861A25200120849
:101BB30061F25200120861BF5300120861785400A9
:101BC3001208613C5500120861B6570012086118EB
:101BD3005900120861695A001208618D5B001208EE
:101BE30061905B00120861BF5B00120861B75D0082
:101BF300120861765E00120861A55E001208613268
:101C03006000120861A260001208613561001208C9
:101C130061A86100120861D1630012086130640099
:101C2300120861846400120861B3660012086196A9
:101C330067001208615268001208616668001208A2
:101C4300617A6800120861A76800120861D768000A
:101C5300120861DE6A001208618A6B00120861F4DF
:101C63006B001208611B6C00120861E36C00120820
:101C730061896D001208610F6F001208619A6F008D
:101C8300120861E16F00120861537000120861A825
:101C93007100120861517200120861857200120806
:101CA300619D7200120861407300120861BC7500E7
:101CB300120861647700120861827700120861A03C
:101CC30077001208616C7800120861BA7B00120871
:101CD300611884011208615084011208615089015E
:101CE300120861968901120861CC8A0112086131D8
:101CF3008B01120861A68C01120861B08F011208D2
:101D030061DB9001120861EE9A011208617E9B016A
:101D1300120861689E01120861759F01120861E84B
:101D23009F011208614CA1011208612BA201120844
:101D33006199A4011208612BA601120861B8A601DA
:101D4300120861DFA70112086107A801120861A741
:101D5300A80112086192A9011208615FAA01120881
:101D6300617CAA01120861A5AA01120861D2AA0125
:101D730012086119AD01120861E8AD01120861276B
:101D8300AE01120861A9AE011208614AAF0112083F
:101D9300617CAF01120861C3AF01120861F6AF01A4
:101DA3001208613AB00112086189B0011208618E0C
:101DB300B001120861EAB0011208612EB1011208E4
:101DC3006108B2011208616DB201120861D3B20158
:101DD3001208614EB301120861B6B601120861B967
:101DE300B70112086137B9011208614DBC0112082D
:101DF30061EFBC0112086138BF01120861F3BF0132
:101E030012086132C0011208610AC2011208612777
:101E1300C20112086130C20112086139C2011208FD
:101E23006144C20112086163C20112086107C4015F
:101E330012086164C4011208616EC401120861884A
:101E4300C40112086199C501120861E2C5011208B3
:101E5300619CC601120861B3C70112086188C801F9
:101E6300120861CFC901120861D3CA01120861CCFB
:101E7300CB01120861E4CB011208611BCC011208EB
:101E83006125CC0112086130CC011208614ECC01EE
:101E930012086196CC01120861F4CC011208611B8F
:101EA300CD011208612DCD01120861E2CD011208A6
:101EB300611BCE011208613DCF0112086190CF0171
:101EC30012086176D0011208619DD0011208610DDC
:101ED300D10112086189D101120861E5D20112080A
:101EE300610CD401120861CED4011208619CD501A2
:101EF3001208615AD60112086142D701120861EC37
:101F0300D70112086154D80112086109D9011208D6
:101F13006165D901120861BDD90112086183DA0133
:101F2300120861A6DA0112086161DB0112086183FC
:101F3300DB01120861E4DB0112086114DE011208FF
:101F4300610DDF01120861B9DF01120861DAE101F5
:101F530012086123E2011208616EE201120861CAEC
:101F6300E20112086128E3011208614CE30112083F
:101F73006170E301120861A5E301120861CDE30179
:101F830012086112E40112086166E401120861BFDC
:101F9300E401120861B9E50112086157E70112086B
:101FA300619CE701120861C5E7011208614EE8016F
:101FB300120861C1E801120861CFE801120861F358
:101FC300E80112086149E90112086164E901120894
:101FD300611FEA011208614BEA011208618EEA01EE
:101FE300120861F1EA01120861FFEC011208612B8A
:101FF300ED01120861E6ED01120861CAEE01120853
:10200300615EEF01120861D7C3041208610FC404B3
:1020130012086130C40412086172C404120861D644
:10202300C404120861E0C404120861F0C404120875
:102033006127C504120861D0C80412086198CA0454
:102043001208617CCC041208611ECD04120861A839
:10205300CD04120861508003120861F9800312084D
:1020630061D88103120861E48203120861048303C7
:10207300120861268403120861D68503120861439E
:1020830086031208611487031208611A8803120871
:1020930061928803120861CD8803120861268903BF
:1020A300120861618903120861AA89031208613E5B
:1020B3008A03120861D48A03120861A98B031208E8
:1020C300617C8C031208610A8D03120861308D0351
:1020D3001208615D8D031208618E8D031208615B26
:1020E3008E031208616B8E03120861BE8E03120801
:1020F30061CB8E03120861D88E03120861E18E034F
:10210300120861458F03120861A38F03120861EE61
:102113008F031208610990031208613090031208BB
:10212300614D9003120861599003120861EA91030B
:102133001208610392031208617F920312086192ED
:102143009203120861A292031208614693031208D4
:1021530061B29403120861C5950312086165960381
:102163001208616F9603120861EE9603120861FF6D
:1021730096031208613E97031208616C97031208D5
:1021830061399803120861909803120861C9980392
:102193001208611F99031208613D99031208618BAC
:1021A3009903120861569A03120861A49A0312084C
:1021B30061F19A03120861749B031208619E9B03E9
:1021C300120861D49B03120861E39B031208614266
:1021D3009C03120861BA9C03120861FB9C0312085A
:1021E300614B9D03120861769D03120861909D0364
:1021F300120861AA9D031208617F9E031208618978
:102203009E03120861C49E03120861D49E03120840
:1022130061259F03120861399F031208615BA003C4
:1022230012086170A00312086103A1031208617709
:10223300A1031208611CA20312086127A20312085A
:10224300618AA303120861A6A303120861F2A30320
:1022530012086160A40312086192A403120861AC1E
:10226300A4031208610CA503120861ABA5031208AD
:1022730061F6A50312086149A803120861E1A803E6
:1022830012086158A903120861B5AB03120861CDA6
:10229300AB03120861D0AB03120861DCAB03120875
:1022A30061F0AB03120861F8AB031208612FAC03B2
:1022B30012086123AD03120861ADAD031208612F4B
:1022C300AE03120861AFAE0312086186AF031208B2
:1022D30061A8AF0312086141B0031208619EB00305
:1022E300120861A1B00312086110B1031208615C06
:1022F300B2031208616FB303120861FAB303120841
:10230300610DB503120861D4B50312086105B60364
:102313001208612BB60312086134B6031208616315
:10232300B60312086113B703120861C3B703120897
:102333006136B803120861D9B8031208614CB903B6
:102343001208618BB903120861D4B9031208619DA5
:10235300B90512086135B9051208611DB9051208DE
:10236300610DB905120861E4FF02120861FD7F00E7
:10237300120861A6B70512086108B705120861F7CC
:10238300B6051208614CBB05120861E5FB03120890
:10239300610BFB0312086141FA03120861B0F803F1
:1023A30012086179F8031208614BF803120861FF00
:1023B300F70312086168F703120861D8F6031208DD
:1023C30061B2F60312086167F60312086131F6037E
:1023D300120861B4F5031208614FF503120861BFD7
:1023E3009805120861FEF403120861F5FF04120850
:1023F30061F2FF04120861EFFF04120861ECFF04AD
:10240300120861E9FF0412086197BA051208618C8A
:10241300BA0512086167BA0512086126F4031208A7
:102423006196F3031208614AF303120861C5F203CC
:102433001208613DBA0512086180F2031208616453
:10244300F2031208610CF103120861DEF0031208B3
:1024530061EEB405120861ABF0031208610080025B
:102463001208612FF00312086106FE02120861AD23
:10247300FD0212086178FD0212086143FD02120891
:10248300610FFD02120861A2FC021208618AFC02BC
:1024930012086165FC021208613EF902120861111B
:1024A300F70212086118F502120861A4F402120877
:1024B3006155F4021208610FF40212086188B40531
:1024C300120861B1F30212086178920500000080DE
:1024D300FB87000100731A35000400141D25000258
:1024E30000181D260002001A1D270002001C1D28CB
:1024F300000100261D29000100271D840004002877
:102503001D860001002C1D2A0001002D1D2B00013A
:10251300002E1D2C000100321D2D0008005A1A2E1A
:10252300000100331D2F000100341D300001003570
:102533001D31000100361D32000100621A33000113
:1025430000631A34000100371D36000100641A3895
:10255300000100381D39000100311D830002004DC8
:102563001D63000100701A640001002F1D65000146
:1025730000301D6D000100711A71000800521A66C7
:102583000001004C1D430001003D1D440002003EBC
:102593001D45000100401D46000200411D47000883
:1025A30000681A48000100431D4B000100441D044C
:1025B3000001004F1DA1000100521D370001005111
:1025C3001D88000100501D3C000100651A3D0001FB
:1025D30000391D49000200451D67000100721A4DB4
:1025E300000200471D4E000100491D4F0002004A32
:1025F3001D3E000100671A510001003A1D520001FF
:10260300003B1D530001003C1D54000100661A00ED
:102613000000000000000136360101000102010044
:102623000103010001040106060502000007010081
:10263300340801000F090401010D0100FF0E080019
:102643000017020000190100FF1A0100011B01001D
:10265300FE1C0100081D0200001F010001200100F3
:1026630001210200002301000F24020000260100C3
:102673000127010008280200FF2A0100072B01029D
:10268300402C0100002D0100012E0100012F01004B
:10269300FF30010B1D310800003A0100083B010027
:1026A3000F3C0100013D0100FF3E04000042040015
:1026B30000460400004A0400004E040000520400D7
:1026C30000560400005A04000001037103010301D2
:1026D30003010301030103220302030103100300A7
:1026E300030003000300030003000300034203008D
:1026F3000324030603000300030403120325032337
:10270300032503230304030403000300030003441A
:102713000300030003230300036503210035038142
:102723000300030503000300030003000325032341
:1027330003030271023001600211027002010202FE
:102743000202028002100261023A00410063027336
:102753000272026202430200021302380000020006
:102763000204021202000200020002000204020438
:1027730002370037003C0244020002390000020025
:102783000265020002350281020002050282028311
:10279300020002030071003001600011007000317B
:1027A3000220035004800010006100000014006345
:1027B3000073007200620043000000130006000073
:1027C30000000004001200000000000000000004EC
:1027D300000400370037003C024400000000000002
:1027E30000000065000000350081000000050000C6
:1027F30000830000000101710101010101110101C8
:10280300013101010101018001100161013B00144B
:1028130000630173017201620143010001130106A8
:10282300013D013500040112010001000100010016
:102833000104010401330133013C01440132013637
:10284300000001000165010001350081010001055F
:102853000182018301000103047104020460041175
:10286300047004020402040104020410046104005D
:102873000414046304730472046204430400041321
:102883000406040004000404041204000400040009
:102893000400045104640000040004000444040020
:1028A3000400040004000465040004350481046486
:1028B3000005040004830400043600010006000040
:1028C300000F0000000000000000000000000003F3
:1028D300FFFF00000403FFFF0000FFFF0FF40100F0
:1028E30005C4040320000100000B000000000000E9
:1028F300000003010F0000000000000000000000C2
:1029030000000000000000000000000000000000C4
:1029130000000000000000571293125D12A911631A
:102923001299126312A5126912A911631299126FF7
:1029330012A9117512A9117B12A9118112A911876C
:1029430012A9118D12A9110000000000000000005F
:102953000000000000000000000000000000000074
:102963000000000000000000000000000000000064
:102973000000000A0000000200000004000000083C
:102983000000001000000020000000400000008054
:10299300000000000100000002000000040000002D
:1029A30008000000100000002000000040000000AC
:1029B30000F91513005D151F0063151F80691501CC
:1029C30000F9150200151503001B15040021150558
:1029D300002715060033151100511514005715155E
:1029E300004515FFFF0000010D1D063D1D08371DA5
:1029F3000B491D10671A02131D052B1D07191D0C0A
:102A0300F51C0D011D64A518FF000007ECFDFDFD7D
:102A1300ECDCDCCCBCACAC9C9C8C7C7C6C6C5C5CE3
:102A23005C4C4C3C3C2C2C1C1C03EAF5E5D5D5C571
:102A3300B5A59595858575756565555545453535B3
:102A4300252515150500160F00000B150B020002B6
:102A5300220F3300000E5A6967426565416C6C6949
:102A6300616E6365303901030507090B0D0F000221
:102A73000406080A0C0D000119161816161823036C
:102A830000303016181920231A1C1E3000034A493F
:102A9300434E181A25050200393D3F373C3C362C7E
:102AA300442D303017181921301B1D1F300C0E0216
:102AB3000B040B0A0708000F0204020101010109BC
:102AC30002E803000000BE040AE80300000E000051
:102AD300007F001E05031E080400030A0C10080CE7
:102AE300280400040903010C05081509FFC082C06E
:102AF30083122463901AA474D3F0A3741AF0901A67
:102B0300A674D9F0A3741AF0901AA874DFF0A37412
:102B13001AF0901AAA74E5F0A3741AF0025E9E7478
:102B2300F71203CAE9FE901A96E4F0EE901A95F0B4
:102B3300901D4112523A125B897C687D1A7A997B07
:102B43001A121191901D43E0901AA1F0901AA274E9
:102B530052F0A3741A023A4474F01203CA8A088B1F
:102B630009EB54807003022CB3901A95E0F912100C
:102B7300058A0A8B0BAE0AAF0BEE4F7003022CAA29
:102B830012500F707EEE241F12538464137002A33D
:102B9300E070708E828F83A3A3E0F50EA3E0F50FA0
:102BA300901AB412588A750A00750B00800D1238FA
:102BB300BB125B891210A1AA0CAB0DEA4B60448ACD
:102BC300828B83E0650E7004A3E0650F70288A8210
:102BD3008B83A3A3A3A3125022E50A450B8A828BFE
:102BE30083A3A3A3A360C7124771850A82850B83BE
:102BF300A3A3A3A380BB8A0A8B0B8A828B8312585D
:102C03008680B8EE242A125384F912667C901AB493
:102C1300123D36A3A3A3A3A3A3A3A3E06402703727
:102C23008A828B8312588A80078C828D83123F9607
:102C3300EC4D60208C828D83E06A7003A3E06B709F
:102C4300E88C828D83A3A3E06970DE901D4912494D
:102C5300A7F0804C121B0F8E828F83E064017034C7
:102C6300EE2418122D111208B81246BE1206E2EE17
:102C73002412122D111208B81246B21208B41261AE
:102C83001A1206E6EE24171246C61224A5740A1277
:102C93000876800CE064027007EEFAEFFB121C0B5F
:102CA300EEFAEFFB120FF3AA08E5096480FB805BE1
:102CB300EAA2E05014901AAC1257A16006126A4FB0
:102CC300120542E508640180395402600C901D5CD2
:102CD3007401F0EA6402FA8032EA54086029121B94
:102CE300098B0BEA450B7016901AB6E4F0A3F0A318
:102CF300F0A3F07A08FB901A95E0F9121167E50842
:102D03006408FAAB0980047A007B000240FC12508D
:102D130090F50A780A2274F41203CAEA4B901AACAB
:102D23006026ECF0A3EDF08A088B09E4F50AF50BB5
:102D330078081208AC7A017B00901A95E0F9121119
:102D43005B7404120876800FE4F0A3F07A01FB9021
:102D53001A95E0F912116702378B74F41203CA8AC9
:102D6300088B098A828B831263701245B638F58308
:102D7300E02409FA7B00120FED8A0A8B0BAE0AAF2F
:102D83000BEE4F7003022E218E828F837402F0A309
:102D9300E4126B73A3A3A3A3E8F0A3E91266A4A3AD
:102DA300A3A3A3A3A3A3F0E5082403F8E43509121E
:102DB3005B2C1245B63AF583123D2FF0EE2409FA47
:102DC300E43FFB8E828F83A3A3126022F583888264
:102DD300E0A2E58E828F83A3A3A3A3A3500474016F
:102DE3008001E4F0E5082403F88882898312588A75
:102DF300EA1245AA3BF583122E261208B0EA2410E4
:102E03001261228E828F83125888120FC9740312A3
:102E13000876EEFAEFFB901A95E0F9120FF90237F4
:102E23008BA3A3E0F508A3E0F509750A007808224F
:102E330074F21203CA8A088B09ECFAEDFB740E12C2
:102E43000B84E0FC1224218A0C8B0DAE0CAF0DEE2B
:102E53004F6030AC08AD09122439E96026AC08ADE7
:102E630009EEFAEFFB12242DE970148E828F831280
:102E73004765FAEFFB12243FAA08AB091223D37963
:102E830000800279B480031208767F060206277455
:102E9300EE1203CA74F712095A8A0A8B0BECFEED81
:102EA300FF750CB3750D00750E008002050E902A98
:102EB300E6E493F8E50EC3984003022FA1AA0E7B24
:102EC300001223AF8A088B09EA450960DF8A828BE7
:102ED30083A3A3A3A3A3E0250DF50DF8C3E50A98E7
:102EE300E50B940050C67C157D007900EEFAEFFBEC
:102EF300120FD5850882850983A3A3A3A3A3E0F8B2
:102F0300E50AC3950D2825E0F8E433F9E50828F52B
:102F130082E50939F583123B05125B89121E098A82
:102F23000A8B0BAC0AAD0BEEFAEFFB12119185087D
:102F330082850983A3E06401700B1246BE740112FB
:102F4300774FA3803DAC18AD19850882850983129C
:102F530058881223C7E9602D7408120B84E0C0E07F
:102F63001246BED0E0F07408120B84E06403700CC8
:102F7300AC18AD19123D271211918009851882856D
:102F83001983125B7D8508828509831240DEA3A322
:102F9300126AC9C0E01242EDD0E0F0750C00A90C32
:102FA3007409026EEE74F71203CAE9FE8A828B83F8
:102FB300A3A3A3A3A3A3E0540860338A828B83A3B0
:102FC300A3A3A3A3A3E0540260218A828B83A3A3B8
:102FD300A3A3A3A3A3A3A3E06406600F74E96E6095
:102FE3000A74CD6E600574F06E7003121AF1024C10
:102FF3001D74E81203CA74F812095A7406120B847A
:10300300125061ECFEEDFF8917751500123266123E
:1030130023E58A0A8B0BEA450B7003023213EE2475
:1030230010125384FAA90A1219718A128B13EA45F2
:10303300137003023213EE2403F50CE43FF50DEE97
:103043002406F508E43FF5097C0085088212460A48
:103053001223D98A108B11850C82850D8312325B62
:1030630012590B851282851383A3A3A3A312547150
:1030730012325BA3A3A3A31257B1851282851383D4
:10308300A3A3A3A3A3A3126EE6126AAE1208B0EE23
:103093001245B63F126126851282851383A3125807
:1030A30082120FC974031208767428120B84124714
:1030B30071E5121249993513125B87742A120B8436
:1030C300E0C0E0E5121245AA3513F583D0E0F075B0
:1030D30014007423120B84E0F5167424120B847805
:1030E3000C120B1502319A851082851183125888B0
:1030F3001223C1850882850983A3EAF0A3EB123268
:103103007DA3A3126765123277A2E6500F8508826A
:10311300850983A3A3A3A3A3E0D2E1F0E515706619
:10312300850882850983124770901AEBE068700363
:10313300A3E0697051850882850983A3A3A3123E86
:10314300C675100078101208B8780C1208ACE51692
:10315300F51078101208B87426120B841206E69044
:103163001AF81206E679007410120B8412668412A0
:103173001C4D740A120876850882850983A3A3A3CC
:10318300A3A3E04405F074012514FC123266122354
:10319300D98A108B110514E5104511604EC3E5144F
:1031A300950AE4950B5044E51475F006A4F8A9F0CC
:1031B300E51228F8E51339F9E8240FF508E439F5A1
:1031C30009850882F583E4127B6FE06401600302E2
:1031D30030EA751501850882850983740112327DF1
:1031E3001252E4A3E8F0A3E9023101AA12AB1312CD
:1031F300197778121208B4AD167424120B84E0FC0C
:10320300A917EEFAEFFB121AEB7402120876803E4E
:103213008E828F83A3A3A3E0C0E07403120B84D038
:10322300E0F0EE2412125384C0E07404120B84D035
:10323300E0F0E50A450B70097405120B8474B9803C
:10324300077405120B84741012612F121C47740843
:103253001208767F10020627E0851282851383A366
:10326300A3A3228E828F8312588E8E828F83A3A371
:10327300A3E0F922A3126823E022127B73A3227432
:10328300E81203CA74F212095AE985188285198370
:10329300F08A0C8B0D8C168D177426120B84125723
:1032A3006FAA08FB121965E9F514AA08AB091219EC
:1032B3006BE9F515E514700302353F751300800FB4
:1032C3008E828F83A3A3A3A3A3E0D2E3F0051312FB
:1032D30042F7E0F8E513C3984003023536E514706E
:1032E30003023536E51375F006A4F8A9F0E50828BE
:1032F300F8E50939F9E8240FFEE439FF8E828F835C
:10330300A3A3A3A3A3E0A2E040C3750E008E828F04
:1033130083E070431258891218638A0A8B0BA80A38
:10332300A90BE849603188828983A3A3A3A3E0643E
:1033330001600D88828983A3A3A3A3E064037017AC
:103343008E828F83A3A3A3A3A3E0D2E7F0750E011C
:10335300E51570030232D0750F00750A08750B006E
:10336300E5176003750F207C087D00790074011256
:10337300091C120FD58E828F83E06044901B3BE0C3
:103383006401701CE50FD2E3F50F750B1012476C47
:103393007401120B84E8F0A3E912478874FF803E9E
:1033A300430F0C750A0C8E828F83A3123552A3A38D
:1033B300A3A3125B897401120B8474FFF0A3801E14
:1033C300851882851983E06009E50FD2E6F50F754C
:1033D3000A0A12476C7401120B84E8F0A3E9F07433
:1033E30003120B84E50FF01245B4350DF583E0C0ED
:1033F300E07405120B84D0E0F07406120B847401A0
:10340300F012091C121C11740D120B84E0600302EC
:1034130035117409120B841258F78E828F83A3A37C
:10342300A3A3F07409120B8412504AE50AF0A3E532
:103433000BF0125005E5161232786011901B3BE039
:10344300C0E07409120B8412503AD0E0F0740912F0
:103453000B84124307A3A3A3123544241C12505B0D
:10346300126FD9123544124FFCEAF0A3EB126A7CB7
:10347300C0E0124FF2D0E0126ABAC0E07409120B36
:1034830084124B39D0E01263C6C0E07409120B8476
:10349300124B2DD0E0F07409120B84123552124BEB
:1034A3001C123693123544242C12505BE50C12493E
:1034B30079350DF583E0C0E0124B14D0E0F07409C8
:1034C300120B8412588A850C82850D831235492488
:1034D30028F582E43B125B87E50C1245AA350DF50E
:1034E30083126EFE75120078101208B01245B435BF
:1034F3000D126126EA1263453BF58312588A120FB7
:10350300C97403120876740112091C121C178E82E7
:103513008F83A3A3A3A3A3E0D2E0F0740D120B84C3
:10352300E060030232C3E50EA2E050021515151444
:103533000232D07900AA08AB09121AF7740E0232CC
:1035430053125894E822A3A3A3A3124775EA2212A5
:103553004775850C82850D832274EE1203CA74E9C4
:1035630012095A8A088B09890A8A828B83A3A3A327
:10357300A3A3A3A3A3E0F912198F8A0C8B0DEA4529
:103583000D700302362212573B123FB1E50A600366
:103593000236277C04850882850983A3A3A3A3A3FA
:1035A300A3A3A3E0F9121995EE4F60738E828F8364
:1035B300A3A3A31247707406120B8412600512476B
:1035C300707408120B84125FE3C0E07410120B8452
:1035D300D0E0123693124770740E120B84125B897B
:1035E3007411120B84E41258FCC8241FF582E438CA
:1035F300F583125538C413135403FC70027C048EF4
:10360300828F83E0F9780C1208B4742059FD74405A
:1036130059F9740212091C121AEB74021208767417
:1036230017026EEE7C08850882850983A3A3A3A3F2
:10363300A3A3A3A3E0F91219958B0FEA450F700317
:103643000235ABEE4F60D8E50AF50B780B1208B8DC
:10365300850C82850D83A3A3A3A3A3A3A3E0F50BEA
:10366300780B1208B88A828B83A3A3A3E0FB8A8218
:10367300850F83123F998A82850F83E0FA8E828FAA
:1036830083A3A3E0F91224AB74021208760235AFC8
:10369300F0850C82850D83A3A3A3A3A3A3A3A322D5
:1036A30074F71203CA74FA12095AE9FE7C017D0108
:1036B3007F0080037D000F125379E0F8EFC3985029
:1036C30028EF75F006A4F885F008A908EA28F8EBB6
:1036D30039F9E82414125D17A2E050D8540C60D4D1
:1036E300E0A2E250D17C0080CD8A828B83A3A3A386
:1036F300A3A3A3E0703DEDA2E0400574016E703317
:103703008A828B83A3A3A3A3A3A374011249E1E039
:10371300C0E07403120B84D0E01249D9E0C0E07416
:1037230004120B84D0E0F07405120B84EC12612FA9
:10373300121C477406024C1AC082C0837901121A04
:10374300F7025E9E74F41203CAEA4B901D5C60227A
:10375300E4F08A088B09F50AF50B78081208AC7AAD
:10376300027B00901A95E0F912115B74041208763B
:10377300800F7401F07A027B00901A95E0F9121120
:1037830067800574021208767F0402062774E81224
:1037930003CA74FC12095A7402120B84E4F0A3F0F6
:1037A300901AB4123FB1851882851983E4F0A3F00F
:1037B300751401901AE5E0A2E35003023847121191
:1037C300798A088B098C0A8D0B8A0C8B0D8C0E8DD4
:1037D3000F901AB6780C12092C1238C27810790C93
:1037E300120AC750077A017B000238B6850C14858C
:1037F3000D15850E16850F177814791012035BA823
:1038030014A915901D49E0C398E4995003E0800181
:10381300E8F5141238C2780C791012035BE4F51240
:10382300F513780879101209C3901AB67808120AAA
:10383300F780111238BB125B89EEFAEFFB1210A16D
:10384300AE08AF09EE4F60638E828F83A3A3A3E01C
:10385300F8E514C3985029EE2403F582E43FF58379
:10386300A814E0C398F060217402120B8412477FFE
:103873001250BBEEF0A3EF1263CBFEA3E0FF80C4B4
:103883008E828F83A3A3A3E4F08E828F8312576B60
:103893008518828519831257A18E828F83A3A3A3D0
:1038A300A36090126696125B47808B7402120B849E
:1038B30012588A7404023253124775901AB4229034
:1038C3001D47E0F510A3E0F511E4F512F51322749A
:1038D300F21203CA8A0A8B0BE9FE7A007B00901A64
:1038E300B412576F901AB41257A1601E0A8508824A
:1038F300850983A3A3A3A31257A1600E0AEA70014B
:103903000B88088909E8450970E3901D4A1247713D
:10391300C3EA98EB9940030239C57A067B0012107B
:103923009B8A0C8B0DA80CA90DE84970030239C5BD
:1039330088828983E50AF0A3E50BF0EE8882898308
:10394300A3A3F0901D49125D89A3A3A3124A09A35F
:10395300A3A3E4F0A3F0901AB4124779600F85088B
:1039630082850983A3A3A3A3125B89801F901AB442
:10397300125B89901AE5E0A2E34011121179EAF88B
:10398300EBF9ECFAEDFB901AB6120B31901AE5E065
:10399300A2E3502E7A087B00901A95E0F912116D7C
:1039A300EA4B4C4D701C901D471275B378081208F2
:1039B300AC7A087B00901A95E0F912116174041235
:1039C3000876022E8DC082C083E9901D5DF0901AA7
:1039D300AE742DF0A3741BF0901AB0743FF0A3746F
:1039E3001BF0901AB27451F0A3741BF0025E9E7424
:1039F300F71203CAEAFEEBFF8908EE4F70031223A6
:103A03006D901ABA1257A17008901ABA8022124701
:103A13007188828983A3A3A3A3A3A3A3A3A3124708
:103A23007988828983A3A3A3A3A3A3A3A3A370DEFB
:103A3300EEF0A3EF126781A3A3A3E4F0126780E57E
:103A430008F0024C1D74F71203CA901ABA800D8E47
:103A5300828F83A3A3A3A3A3A3A3A3A3123FB1EE24
:103A63004F60348E828F83A3A3A3A3A3A3A3E06990
:103A730070DD8E828F83A3A3A3A3E06A7003A3E008
:103A83006B70CC8E828F83A3A3A3A3A3A3E06C70DC
:103A9300BEEEFAEFFB80047A007B00024C1D74F744
:103AA3001203CA901ABA123FB1901ABA12354D686E
:103AB3007002EB69701EE0C82409F582E438F583CF
:103AC300124771901ABA125B89901ABA123FB180E9
:103AD30027123FA4EE4F60208E828F83A3A3A3A35C
:103AE300A3123549687002EB6970E68A828B83A35F
:103AF300A3A3123B05125B891210A1EEFAEFFB029E
:103B03004C1DA3A3A3A3A3A3124313A3A3A3A3A3E0
:103B13002274F01203CA74FA12095A8A088B098AAA
:103B2300828B83A3A3A3A3A3A3A3A3E06033640112
:103B3300602F8A828B8312588A121E8DE970228528
:103B43000882850983A3A3A3A3A3A3A3A3E0640378
:103B530070147404120924AA08AB09121BABE97090
:103B6300167902023D108508828509831247717414
:103B730004120B84125B89126CCD2434125FFE1283
:103B8300109B8A0A8B0BAE0AAF0BEE4F7003023DFC
:103B93000E7C347D007900120FD5740212091C8546
:103BA3000882850983A3A3A3A3A3A3A3A3A3E0F9E3
:103BB3001224697402120B84E0C0E0123D1FD0E0AE
:103BC300F0EE242EF50AE43FF50B7403120B84E0A8
:103BD300850A82850B83F07901EEFAEFFB121B1B3A
:103BE30085080C85090D750E00780C1208B07C1E33
:103BF3007D00123D27120FC97403120876EE24329A
:103C03001240D42434F8E43FF98A828B83125B890F
:103C1300E5082411F8E43509F9E8FCE9FD8C828D07
:103C2300831250562430125B831240CC12786612F2
:103C330008B08C828D83123D3612588A120FC974D4
:103C4300031208767404120B8412430F125B8990DB
:103C53001A96123D2FA3A3A3F0901A96E004F01234
:103C630011798E828F831250A5242C1245DF750D96
:103C730000850A82850B83E0780C120A118A828BF5
:103C830083E50CF0123D15E50C1250BBE4F0E5089A
:103C93002415126CD1A2E074015007120B84740135
:103CA3008004120B84E4F0EE2429125762AA18ABA5
:103CB30019122481E924FE850882850983F0EE2404
:103CC30030F8E43FF9E8FCE9FD123D3E120282E8D8
:103CD3008E828F83A3A3A3A3A3A3A3A3F0123D3E2A
:103CE3001202828B09EA4509600F8E828F83A3A398
:103CF300A3A3A3A3A3A3E004F0EE242012538444BC
:103D03000812462B12102F790080027910740602D4
:103D130040F9EE242BF582E43FF58322EE1263454E
:103D23003FF58322EE240BFAE43FFB221266ACA399
:103D3300A3A322123F9E8A828B83228C828D8312BD
:103D430052E8E0FA7B002274F41203CAEAFEEBFFA6
:103D53001211798E828F83125061901D3DE0F8EE2F
:103D6300242D125384C3984003023EAB1245EB70DB
:103D730012EE242D125384041253B7C0E0123D15E2
:103D8300D0E0F0EE242A125384FC7900800109EE7E
:103D9300242E125384F8E9C3985026750801750937
:103DA30000E97808120A111245EB550860E0E92C86
:103DB300FC750801750900E97808120A11E0450845
:103DC300F0EE2429125384FAEE2430F582E43FF511
:103DD30083EC8AF0A4F8ABF0E42BF9E098F8A3E0C5
:103DE30099F9C3E89AE99400EE40312429125384E7
:103DF300F81245EB602C123D1F123EC6A3E4F0EC13
:103E03007047EE24201253844420125FE7C0E0126F
:103E130053A5D0E01253AFFAA3E08052123D1674BB
:103E2300FFF0901ADBE0FA901D40123EBDABF07537
:103E3300F064A4FAADF075F064EBA42DFB8E828FD1
:103E430083A3A3EAF0A3EB80B5EE2420125384549A
:103E5300DF1253A0ECF0FAEE2429F582E43FF58358
:103E6300123EBDFAABF0EE124FEC3F124601FB12CD
:103E73006A92EAF0A3EB126790C0E0EE2425F58284
:103E8300E43FF583D0E0125072E81257B1901ABCA8
:103E93001257A1600BECF9126A4F120542E9701731
:103EA300123D27121B81800F7BE91240EA1224B1D5
:103EB300EEFAEFFB121B2702378BE0F508EA8508C1
:103EC300F0A4221266ACA3F02274F41203CA901A6F
:103ED300BA123FB11211798A0A8B0B78FF79FF80EE
:103EE30020E0C39AFCA3E09BFDC3EC98ED99500E30
:103EF3008E828F83A3A3E0C39AF8A3E09BF9123FBA
:103F0300A4EE4F605C8E828F8312588AE50AC39AAF
:103F1300FAE50B9BFB8E828F83123F98C3EA9CEBDF
:103F23009D8E828F83A3A340B8A3A3A3A3E06402BF
:103F3300701AEE240B1245EE60091245CA12588A14
:103F4300120FF3EEFAEFFB121B278007EEFAEFFBDB
:103F5300121B337A017B00901D5DE0F912102F8054
:103F63002974FF68700374FF69601F88088909E476
:103F7300F50AF50B78081208AC7A017B00901D5DF9
:103F8300E0F912115B740412087602378BA3A3A322
:103F9300A3A3A3A3A3A3A3123F9E22E0FCA3E0FD3C
:103FA300228E828F83A3A3A3A3A3A3A3A3A3E0FE31
:103FB300A3E0FF2274F01203CA8A088B09ECFAED1E
:103FC300FB890A7C01126CCDF9121B218A0C8B0D23
:103FD300AE0CAF0DEE4F70030240C0E50A60030262
:103FE30040C01240CC1240E26860030240C012405D
:103FF300CCE0FAEE242E125384F8EA28FAE43400D3
:10400300FB8E828F83A3A3A3A3A3A3A3A3E0F8EAB6
:1040130098EB9400C365D033401CE5082414126C5C
:10402300D1F470127B001240EA1224B1EEFAEFFBD6
:10403300121B270240C0E5082414126CD1F470420D
:10404300EE242B1240D4242EF8E43FF9E8FCE9FDDA
:104053007508FF7509008C828D83E07808120A11B8
:104063008A828B83E508F01240C2E508F08C828DCA
:10407300831240E228F0EE242DF582E43FF583E439
:10408300801BE5082414F8E43509F9E0C0E0124088
:10409300C2D0E0126017C0E0123D15D0E0F012115B
:1040A300798E828F831250A5123D201240DEA31217
:1040B30057B17A01FB901D5DE0F912102F803AEEA3
:1040C300242CF582E43FF58322E50824131242FFF2
:1040D30022F8E43FF9E8FAE9FBEE221266AC22E0AB
:1040E300F8EE125D2EE022EE2422125090FAEE2416
:1040F30014125090F9221208767F0802062774ECF6
:104103001203CA74FE12095A8A0A8B0B8C0E8D0F86
:1041130089108A828B83A3A3E0F912248D8A088BEA
:1041230009AE08AF09EE4F70077A007B000242E345
:104133007A127B0012109B8A088B09EA45097003E7
:104143000242DF7C127D007900120FD5AA18AB1949
:10415300850A82850B83A3A3E0F9122469E5082469
:104163000FF50CE43509F50D7401120B84E0850C91
:1041730082850D83F07902AA08AB09121B1B850EF9
:1041830082850F8312430712432512459E12675CF3
:10419300F07512FF751300850C82850D83E078128C
:1041A300120A11126FD9E512124B45126A4DE0C083
:1041B300E01242F7D0E0F01245C0F50CE508240DFB
:1041C300126FDDE50CF0E50A1245D2850CF0A4A9C7
:1041D300F02427FAE439FB120FED8A0C8B0DAE0C99
:1041E300AF0DE508126A25EEF0A3EFF0EE4F700372
:1041F3000242D28E828F83741A1257B18E828F83BA
:10420300A3A3F0A312432B12430F125B89AC0EAD91
:104213000F126A9C12246F850A82850B83A3A3A3C2
:10422300E0C0E012552ED0E0F0901AF81250562458
:104233001012431F125044350B125054126111E8EF
:10424300F0A3E912432BA3A3A3A3125056241212E3
:104253005B83850A82850B83A3A3E0C0E01242ED52
:10426300D0E0F0E50A1249991245A5E0C0E01264D6
:104273007CD0E0F07416120B84126A55C0E0126C05
:10428300BBD0E012677BC0E0126A2BD0E0126A5EFB
:10429300C0E0126A35D0E0125067E510F0741812CE
:1042A3000B84120B3DEE241AF582E43FF583120BC7
:1042B30031EE2427F8E43FF9EE242212431F125F64
:1042C300EC1245A5E0C0E0126AA4D0E0F0800DAA8C
:1042D30008AB09121B27750800750900AA08AB096A
:1042E30074021208767F0C020627EE2414F582E48A
:1042F3003FF583221242FB22E508240BF582E435C5
:1043030009F583221252E8A3A3A3A3221243132283
:104313001268388E828F83A3A3A3A322F582E43F7E
:10432300F5831250D3E50A22F0850A82850B83A315
:10433300A3A3A3A3A32274ED1203CA8A0A8B0B8C33
:10434300108D118912750900EA1245D2F508901AE9
:10435300BC1257A1600EA908126A4F120542E96008
:10436300030245997C0285108285118312588AE5E0
:104373000A12459EE0F9121B218A0C8B0DAE0CAF7D
:104383000DEE4F7054850A82850B83A3E0A2E040B3
:10439300030245997415120B841206E27417120B6B
:1043A300841206E6A912AC10AD11AA0AAB0B121BBC
:1043B3004574061208768A0C8B0DAE0CAF0DEE4FCA
:1043C30070030245998E828F83A3A3A3A3A3A3A300
:1043D300A3E50812462B12102FA8088E828F83A301
:1043E300A3A3A3A3A3A3A3E024FFFAE434FFFBEA5C
:1043F300684B7003750901EE240B1245EE7003023E
:10440300454E850A82850B83A3E0A2E0500375081D
:1044130000124618E5089AE49BC365D033401CE0BC
:10442300F8EE240E12538428F0750CFF750D00E886
:10443300780C120A11125FA2E50CF0E50A1245AAE4
:104443001245A5126B4A1208B0E50A1245B6350BA0
:10445300126126EE240D125384F50CE508850CF049
:10446300A4FAABF01245CA1263732422F582E4382E
:10447300124601FB120FC97403120876750C011260
:1044830045F3780C120A11125381450CF0E509A289
:10449300E05063EE240C1245DF1245F304780C124E
:1044A3000A118A828B83E0450C12508585080C859E
:1044B3000CF0A4F8A9F01245C0FCE82CFCE439FD8B
:1044C3001245CA1263732420F582E438F583ECF0B5
:1044D300A3ED1250ACF4701EEE240BF50CE43FF583
:1044E3000DEE1245B63F12460A120FF9850C82856E
:1044F3000D8374FF80541211798E828F8312506161
:10450300901ADBE0FA901D40E0F50CEA850CF0A46C
:10451300FAABF0F8EBF9901D3DE0F50CE8850CF0F3
:10452300A4F8ACF0850CF0E9A42CF9EA28F8EB39EF
:10453300F9E875F064A4F8AAF075F064E9A42AF91F
:104543008E828F83A3A3E8F0A3E9F0A8081246188C
:10455300EA24FF1AEB34FFFBEA687001EB600EEE0E
:10456300240C1245EE6006E509A2E05029E50A1283
:1045730045D7ECF0125381C0E0E50A2414F582E438
:104583001245A5D0E0F0AC0AAD0B851082851183EE
:1045930012588A121B6F7F0B0206271249791245A4
:1045A300A522350BF583221245AE22240EF582E4B3
:1045B30022E50C1245BA222410F582E422E50A1200
:1045C30045BA1245A5E022EE1245BA3FF583221201
:1045D30045D7E022124973350BF58322F8E43FF9FE
:1045E300E8FAE9FB750CFF22EE242B125090F4221B
:1045F300750D0012508DF5F0E50884E5F022F58382
:10460300E02AFAA3E03B22F583125894850C8285B5
:104613000D83E0F922EE240E125090FC12508DFA15
:10462300EC2AFAE43400FB22F07A017B00901D5D52
:10463300E0F922C082C083901D5DE0F9120FF902F8
:104643005E9E74F41203CA8A088B09EB5480703B94
:10465300EAA2E05053121B39E5086401FAAB098062
:104663004B8E828F83E06401701A1246BE1206E2FB
:104673001246B21208B4EE24121246C6121B4B7431
:1046830006120876EEFAEFFB120FF3901D5DE0F9C8
:104693001210058A0A8B0BAE0AAF0BEE4F70C2AA3B
:1046A30008E5096480FB80047A007B0002378BEE07
:1046B300240FF50AE43FF50B780A22EE1249733F03
:1046C300F58322125090F9EE2402FCE43FFDEE2420
:1046D30019FAE43FFB22C082C083901ABE80048C87
:1046E300828D83123F9AEC4D60288C828D83A3A325
:1046F300E069600574FF6970E68C828D83A3A3A3D0
:10470300E06A7003A3E06B70D6EC2403FAE43DFB8C
:1047130080047A007B00025E9E74F71203CAE9FDEF
:1047230074FE6D70047C0180027C00901ABE8009C7
:104733006D70027C01888289831257A1601F888271
:104743008983A3A3A3E06A7003A3E06B70E7ECA2E1
:10475300E088828983A3A3E050D6F9800279FE0220
:104763004C1DA3A3125773EE228E828F83A312478D
:10477300752212683822125894EA4B22E02401F081
:10478300A3E034002212478C22124790221247944E
:1047930022126823A3A3A32274F61203CA8C828D68
:1047A30083A3A31249CFF0EA2417F582E43BF583F0
:1047B300E0C0E012499FD0E0F012497F1247711226
:1047C30049891249CFA3F0A3F0EA241FF582E43B01
:1047D300F583123FB1EC1250443DF583EEF0A3EFA5
:1047E300F0EA125F9C3BF5831249B0A3A3A3A3A3F2
:1047F300A3EEF0A3EF126017FE8C828D831249F9AA
:1048030074035EFEC394034003024966EE600574BD
:10481300026E70798C828D83E0540CFE740C6E7082
:10482300030248CDE0A2E4400D88828983E08C82B4
:104833008D83A3124A0174086E60030248CD1249A6
:10484300917401F08A828B83A3A3A3A3A3125A5466
:1048530070148C828D83E0440C1249D9A3A31249AE
:10486300B0EEF0A3EFF08C828D83E0A2E4401E1241
:1048730049BE1249EA5001091249BEA3A31249EAEB
:10488300500109888289831249A71249F9888289CC
:1048930083E0C0E0EC1249793DF583D0E01249F999
:1048A3008C828D83E0A2E7507888828983E0FE8C36
:1048B300828D83124A0174FC5E700C8C828D83A3FB
:1048C300E054036403701B024966124991E4F074D7
:1048D3000C6E60030248471249BE1249EC50870927
:1048E30080848C828D83A3E054036038888289831B
:1048F300E0C0E0EC1249733DF583D0E0124A028C2C
:10490300828D83E054036402701A88828983E0C035
:10491300E0EC2414F582E43DF583D0E0124A0280F2
:1049230003A3E4F0EC1245AA3D125B87EC2410FECE
:10493300E43DFF12497FE0F5088E828F83E0C39840
:104943002508F508F0EA2417F8E43BF988828983FF
:10495300E0C39508C0E0124989D0E0126017C395FF
:1049630008500A124989E4F012499FE4F0024A13FD
:104973002413F582E4222411F582E422EA241DF5AE
:1049830082E43BF58322EC125F9C3DF58322EC121B
:1049930049993DF58322240CF582E422EC1245BAB1
:1049A3003DF58322E08C828D83A3A3A322E0FEA3A3
:1049B300E0FF8C828D83A3A3A3A32288828983E053
:1049C300F508A3E0FFE5088C828D8322E4F08C8256
:1049D3008D83A3A3A3221249E1A3A3A3A322F08A55
:1049E300828B83A3A3A322A3A3A3A3A3A3F0A3EFD5
:1049F300F0E82402F822124A09A882A98322A3120A
:104A03004A0908A9832212601CA3227402120876A1
:104A13007F0202062774F41203CA74F312095A8A36
:104A23000A8B0BECFEEDFF8E828F83E0540CF508AE
:104A3300E0A2E75006E508D2E7F508E508D2E1F57C
:104A430008125A547006E508D2E4F508E0A2E550CE
:104A530006E508D2E5F5087C087D007900AA18ABC5
:104A630019120FD57402120B84E508124B45C0E0EE
:104A73007403120B84D0E01250BBE50AF0A3E50BDC
:104A8300F07405120B8412612D121C11740C120B9D
:104A930084E070787408120B84126373125FEC382D
:104AA300126848C0E07408120B84124B39D0E0122C
:104AB30063C6C0E07408120B84124B2DD0E0F0746F
:104AC30008120B84125206124B1C125FE712509805
:104AD3002411125384C0E0124B14D0E0F0EE2414DE
:104AE300125384C0E07408120B841263732435F5E7
:104AF30082E438F583D0E012507DC0E07408120BD5
:104B03008412502ED0E012612F121C17740D02373D
:104B130088E8124FEC39F5832212588EE8242AF5DF
:104B230082E439F583EAF0A3EB221263C12427F56B
:104B330082E438F583221263C12426F582E438F532
:104B4300832212681EE02274F71203CA7E008A824F
:104B53008B83A3A3A3A3A3A3A3A3A3E064046003DE
:104B6300024BF6125910E06003024BF6124BFA3B6C
:104B730012579F607E88828983E054037075E8240E
:104B83000C125D17FA8C828D83A3A3E0FBA3E0CB09
:104B93001249793BF583E06A705988828983A3A31C
:104BA300A3A3A3124C05E06A7003A3E06B704488CF
:104BB300828983124C05A3A3125D442406125384F5
:104BC3006A7003A3E06B702B88828983A3A3E0F848
:104BD3008C828D83A3A3E0F9A3E0F5838982A3A349
:104BE300E068600D8C828D83125536540C6404701A
:104BF300027E01EEF98023EA124BFF22240FF58295
:104C0300E422A3A3A3A31258948C828D8322740C51
:104C1300120B84E0F9740D1208767F0102062774E3
:104C2300F61203CA74FC12095AEAFEEBFFECFAED22
:104C3300FB8A828B83A3E054036016901AB0125749
:104C4300A160597900EEFCEFFD126A4F1205428014
:104C53004B851882851983EEF0A3EFF07402120BD3
:104C630084125061AC18AD197A757B1B121DA38A8F
:104C7300088B09A808A909E849602188828983A3C8
:104C8300A3A3A3A3A3A3A3A37406F07A0088828992
:104C93008312637312634BE0F9121CE97404024A32
:104CA3001074F21203CA74F312095AEAFEEBFF8E70
:104CB300828F83A3A3A3A3A3A3A3A3A3A3E0F50A20
:104CC300901D5CE0700579BA024FE775080175091C
:104CD30000750C00750D007C087D007900AA18ABE7
:104CE30019120FD57405120B8474011250B35404B6
:104CF30060127402120B84E0D2E61250B3540870AF
:104D030003750803E05410600674404508F508E095
:104D1300540860227402120B84E044C01250B3544E
:104D230020600A7403120B84E0D2E080087403123B
:104D33000B84E0D2E1F0EE24151253841250167066
:104D430003740169700674084508F5088E828F8321
:104D5300A3A3A3A3A3A3A3A3E07016121E0F8518F6
:104D6300828519831250617402120B84E0D2E280AF
:104D73002C640F70107402120B841250C374044518
:104D830008F508807B8E828F83A3A3A3A3A3A3A389
:104D9300A3E064028E828F837006125FDBF0806073
:104DA300A3A3A3A3A3A3A3A3E06403700DAC18ADB3
:104DB30019EEFAEFFB121BAB80468E828F83A3A3FF
:104DC300A3A3A3A3A3A3E064017035901B3BE060FE
:104DD300107402120B841250C3750910750AFF80F8
:104DE300187402120B84E0440C1250BB74FDF0A340
:104DF30074FFF074044508F5088E828F83125022E5
:104E0300EE2415125384A2E0503F7402120B84E087
:104E1300540C701B8E828F8312588A1216DDE97030
:104E23000579BB024FE77402120B84E0D2E5F0EE82
:104E33002415125384A2E050107402120B84E05420
:104E43000C64047004E0D2E5F0EE2411125384C024
:104E5300E07404120B84D0E012612F121C11740C45
:104E6300120B84E06003024FE07408120B841250AB
:104E73004AE508F0A3E509F0EE2418125384C0E0D4
:104E8300125005D0E0125067E0C0E07408120B84A2
:104E930012637312497338F583D0E0125FE764013C
:104EA3007011901B3BE0C0E07408120B8412503A5F
:104EB300D0E0F07408120B84125056241712538456
:104EC300FAE8241CF582E439F583EA1257B1EE249B
:104ED30015FAE43FFB8A828B83123F9AE8124FFC58
:104EE300ECF0A3ED125072E0C0E0124FF2D0E012EA
:104EF30050AC125016700374016970137408120BCE
:104F0300841258F7FAEE241D125384F912199B8E5A
:104F1300828F83A3A3A3A3A3A3A3A3A3E0C0E0744B
:104F230008120B84124B39D0E0F07408120B841270
:104F33004B2DE50AF07408120B8412577F2428F5D1
:104F430082E439F583E50CF0A3E50D125085FAA34D
:104F5300E0FBE8242A12509F240F12538412509826
:104F63002417125384C0E0E82433F582E439F5832F
:104F7300D0E0F012500FC0E07408120B8412502ED0
:104F8300D0E0F0EE241A125384C0E07408120B84AC
:104F9300126373124FEC38F583D0E012507D122E5A
:104FA300271208B0126A1D123F9A740B120B841257
:104FB3005FC3120FC97403120876EE2415125384CB
:104FC30054406012901ACA1257A1600AAA18AB196A
:104FD300126A4F120542AA18AB19121C17740C124D
:104FE3000B84E0F9740D022E8A2432F582E422E860
:104FF3002420F582E439F58322241EF582E439F571
:105003008322E82412F582E439F58322EE241B126D
:105013005090225480F8A3E05401F974806822125E
:10502300502622E0F50CA3E0F50D221263C12434CF
:10503300F582E438F583221263C112504438F583B4
:10504300222415F582E422125783124BFF39F5838C
:1050530022F583124775EE22F582E439F583EAF0EF
:10506300A3EBF022F0EE2419F582E43FF58322F05E
:10507300EE241CF582E43FF58322F0EE2413125054
:105083009022F0EE240D12509022EE240FF582E4CC
:105093003FF583E022FAA3E0FBE8242CF582E43910
:1050A300F583EAF0A3EBF0EE22F08A828B83E02211
:1050B300F0EE241512509022F08518828519832270
:1050C300E0D2E3126BED1250CD228518828519834D
:1050D300E8F0A3E9F02274F71203CA7E638A828B95
:1050E30083E0600C7905121CB9E9F87456C398FE85
:1050F300901AE3E0600CF9121CB9E9F8EEC39824A6
:10510300F2FE024BF674F61203CA74FE12095A85B4
:105113001882851983125061E9FEECFAEDFB9003C6
:10512300041257A16035A818A919880889097808B5
:105133001208B47D01740E120B84E0FCEEF99003A7
:105143000412636712054274021208768B09EA455A
:105153000960047900800679B2800279B6024A0EAA
:1051630074F71203CAE9FE901AA41257A1601F74C0
:1051730009120B84E0F50878081208B8EEF9901AC2
:10518300A41263671205427401120876800279B68D
:10519300024C1D74F71203CA8908ECFEEDFF79B5C2
:1051A300E508245F600C14603114601224F8604534
:1051B300804E901A97125206E8F0A3E980199003E3
:1051C30006124779603A9003061263671205428E0E
:1051D300828F83EAF0A3EBF08024901AA6123F9A01
:1051E300EC4D601CEEFCEFFD901AA61263671205EE
:1051F30042E9F9800B901AA2126684121191790088
:10520300024C1D1247758E828F832274F71203CAD4
:10521300E979B5245F600624F6600E80178C828DD1
:105223008312523A125B898009901AA212588A1289
:1052330011917900024C1D124775901A972274F24E
:105243001203CA8A088B09ECFEEDFF750A01901A56
:10525300EBE065087004A3E065097014121E098A67
:10526300088B09AC08AD09EEFAEFFB121191802A05
:10527300121E158A0C8B0DE508650C7004E5096593
:105283000D7009EEFAEFFB121E1B800EEEFCEFFD14
:10529300AA08AB09121803E9F50AA90A022E8D74AC
:1052A300F21203CAEAFEEBFF8C088D09750A01129C
:1052B3001E098A0C8B0DAC0CAD0DEEFAEFFB12112F
:1052C3008BE96401700B901AEB1252E4125B898034
:1052D3000EAC08AD09EEFAEFFB121809E9F50A80E6
:1052E300B91252E82212683885088285098322742C
:1052F300F61203CAEAFEEBFF7A0D7B0012109BEA5B
:105303004B6070EE2424126C0FF0EE2425126C0F08
:10531300A31253A0126C15A3A3126A64125388F04C
:10532300EE125D2A1247718A828B83A3A3A3A3E89B
:10533300F0A3E91253B7125391125B89EE242EF5B1
:1053430082E43FF583125388A3A3A3A3A3F0EE241F
:1053530033125384C0E0125379D0E012684C1253D5
:1053630091A3A3A3E8F0A3E91253AFC0E01259102D
:10537300D0E0F0024A13EA125D243BF58322EE24C7
:105383000C12509022E08A828B83A3A3A322F8A35A
:10539300E0F98A828B83A3A3A3A3A3A322F01253CE
:1053A300A522EE2426F582E43FF58322F0EE243293
:1053B30012509022F0EE242C1250902274F4120317
:1053C300CA74FE12095AECFEEDFFEE241612538442
:1053D30064057010EE2406FCE43FFD121BA5E97082
:1053E3000302546CAC18AD19126A9C1216E38518AB
:1053F300828519831257A1606C8E828F83E06401CA
:105403007059E875F009A4F8AAF075F009E9A42A1F
:10541300F9742928F8740839F9E8FAE9FB8A828BC8
:10542300837808120B15126A3F7808120AD74027AF
:1054330085188285198312505612552F125471788C
:1054430008120B1590840E78081209FE8A828B834A
:105453007808120AF7800A79A28010EE240F125BF3
:10546300837900800679A1800279C80237861250B9
:10547300D3126A432274F01203CA8A088B09ECFE22
:10548300EDFF12552EE4F0A3F09083B6780C120BC7
:1054930015126A3F780C1209707003025526EE2428
:1054A3000E1253846401703678B3901AE2E0702AC6
:1054B300901B14E064017022EE2411125384F9123C
:1054C3001CA18A088B09A808A909EE240F125B8383
:1054D300E84960047800800278A1880A8048E07077
:1054E30017121BB7E9F50A603D8E828F83A3A312BF
:1054F30055365403700E802E64027015121BB7E9E3
:10550300F50A6022EEFCEFFDAA08AB091216EF8044
:1055130008E064037008121BB7E9F50A8008750AEE
:10552300A18003750AA3A90A0240FCEE124BFF3FB8
:10553300F58322A3A312619D2274F01203CA74F5AA
:1055430012095AEAFEEBFFEE240AF508E43F850848
:1055530082F58312576F12574374031209248E8204
:105563008F8312588A121BA5E9700302562B74010C
:10557300120924740312091C1216E37401120B841A
:105583001257A1700302562BE875F009A4F8AAF08C
:1055930075F009E9A42AF9742528F8740839F9E89B
:1055A300FCE9FD126EF6E4F004120B84124771E578
:1055B30008124BFB3509125B878C828D83120B3DDE
:1055C30012574F120B3190840E7808120B158C82F0
:1055D3008D837808120A708C828D837808120B15DC
:1055E3009083B2780C120B157808790C12035BE5E3
:1055F3000C450D450E450F702F7401120B84125785
:105603007F75F009A4F8AAF075F009E9A42AF974E2
:105613002D28F582740839F5837401F07A007B082C
:1056230090190EE0F912102F125757E02406FCA32D
:10563300E03400FD8E828F8312588A121BA58508E1
:105643008285098312579670521258CB12118BE937
:10565300701D121E098A088B09AC08AD09901AA2A5
:1056630012588A12118BE97006121C3BE9602C8ECA
:10567300828F83123F908E828F8312588A1216F57F
:10568300E960138E828F83A3A312636B124BFB38E3
:10569300F583E4F0A3F0125B60E4F0125788600333
:1056A3000257368E828F83A3A3A3A3A3A312576BA0
:1056B300901AE2E07072901B14E06401706A750A3C
:1056C3003A750B00780A1208B47402120914880A96
:1056D300890B780A1208B47C017D007A007B0012E2
:1056E3001FD77404120876E9703B126EF674011228
:1056F30050BBE0C0E0E5082411126FDDD0E0F012EA
:10570300573B743A1257B1901ACC120B3D12574FB4
:10571300120B3190840E7808120B15901ACC78086E
:10572300120A7080031257431257887006125FA241
:1057330074A1F0740B0240F9E508240F1242FF2212
:10574300E508240F1242FFE4F0A3F022E508241237
:105753001242FF22EE240A1257628882F58322F84E
:10576300E43FF98808890922A3A3A3A3125773224C
:10577300E0F508A3E0F509228C828D83125783227A
:10578300126838E8228E828F83A3A3A3A3A3A3A3C3
:10579300A3A3A31263C1240FF582E438F583125740
:1057A3008349221263C1124BFF38F5837404F0A3BB
:1057B300E4F02274F61203CAEAFEEBFFEE240A12A7
:1057C30057627A187B0012109B850882850983EA49
:1057D300F0A3EB12590BE8497003025877EEFAEF86
:1057E300FB121BC312578860741258E964018E823E
:1057F3008F83A3A3A3A3A3A370071258BB740E8024
:10580300201257A1700F1258CB12118BE970061298
:105813001C3BE960071258B1740D80051258B1742E
:105823000512684C54036401700712589A7405807A
:105833000B901AE3E0C0E012589AD0E01258FCF53E
:10584300838882A3E0F9121CB98508828509831233
:1058530063732417F582E438F583E9801A85088297
:1058630085098312588A1210A1850882850983E469
:10587300F0A38003126352F0024A138E828F83A334
:10588300A3A3A3A3A3A3A312589422A3A3A3A3A351
:10589300A3E0FAA3E0FB228E828F83A3A3A3A3A397
:1058A300A3A3A31258AA22A3A3125FBBA3228E828F
:1058B3008F83A3A3A3A3A3A3A3A3A3A31263C1241B
:1058C30016F582E438F58322901AA2123F9E8E8247
:1058D3008F83A3A3A3A3A3A3A3A3A3A3E02406FA51
:1058E300A3E03400FB228E828F83A3A3A3A3A3A3ED
:1058F300A3A3A3A3125B72E022125900221259043C
:1059030022126CDAF8A3E022125900F922EA1249B2
:10591300993BF5832274F11203CA8A0A8B0B8C0814
:105923008D097A187B0012109B8A0C8B0DAE0CAF7D
:105933000DEE4F7003025A4D121E0F8A0C8B0DA8E9
:105943000CA90DE5082415126CD1687003A3E06956
:105953008E828F837004740280027401F0E5082440
:105963000DF8E43509F988828983E0FAC3E49AFAE9
:1059730095E0FBE5081245AA3509124601FB8E8224
:105983008F83A3A3A3A31260138E828F83A3A3F099
:10599300EEFAEFFB121C65850882850983125A54BF
:1059A30070098E828F83A374058006901AE31240D8
:1059B300DEF0EE2417F8E43FF9880C890D8E828F10
:1059C30083A3E0F9121CB9E9850C82850D83F0EEFF
:1059D3002416F8E43FF9E508240EFAE43509FB88B8
:1059E300828983126383E5082410FAE43509FB8571
:1059F3000C82850D83E0FC88828983E0F88A828BA0
:105A030083E0C398C39CF8124788F0EEFCEFFDAA2D
:105A13000AAB0B121BBDE9F5088E828F83E064028B
:105A23007011121E098A0A8B0BAC0AAD0B126A9C09
:105A3300121191E508700AEEFAEFFB121C71E9F5F9
:105A430008EEFAEFFB1210A18003750810A9088075
:105A53000BE05403640122740D1208767F070206DB
:105A630027790102085E74F41203CAEAFEEBFF8E83
:105A7300828F8312636B2424F582E438F583125AF0
:105A830054702A1258E97025125B4DE06405701DAD
:105A9300125B4DA3E0F87401686005740668700733
:105AA300125B6074028005125B607403F012575737
:105AB300126367E4F0EE2408125B292431F582E4D3
:105AC3003AF583E0C0E0125B37D0E0126017FAA327
:105AD300E0CA242EF582E43AF583E0C0E0125B3796
:105AE300A3D0E0126017F8A3E0C8125D2038F58355
:105AF3001252E4125B47125B89121E098A0A8B0B4E
:105B0300AC0AAD0B850882850983E02406125FFE8B
:105B130012119185088285098312588A121C711209
:105B2300642BF002378BF8E43FF988828983E0FA2B
:105B3300A3E0CA22850882850983125B412212638E
